:020000040000FA
:0400000081312529FC
:100008007E1480310B1D09280A28A9280B11643099
:10001800200095004C080319122813285B2879083A
:1000280003191728182823287903031D1C281D28BD
:10003800272829082A0403192228232827280130D9
:10004800AF070030B03DEA303002613003192F02AB
:10005800031C2F2830285B28AF01B00106307B0233
:100068000318372838283D280130F8007808FB079E
:100078005B28FB010130FC070030FD3D7D08AE0028
:100088007C08AD007D08F8007808F0001130843154
:10009800862480317C08F8007808F000103084311C
:1000A80086248031230095185A285B285628790819
:1000B80003195F286028A92801302000B7070030FD
:1000C800B83DEA303802613003193702031C6D2845
:1000D8006E287028B701B8017030F0001730F100B1
:1000E8003808F3003708F2008331B72380317108EC
:1000F8002000B2007008B10029082A0403198528D5
:100108008628962832083406031D8C2831083306C1
:1001180003198F28902896282908FF3EA900FF3048
:100128002A3DAA003208B4003108B30029082A047D
:10013800031D9F28A028A928A901AA01B701B80171
:1001480025008C14F9012000CC012000111CAD28D9
:10015800AE2823290B309700DC30960011101029A7
:1001680025008C150C1601302000AB070030AC3D83
:1001780006302B062C040319C228C328C4282329B7
:10018800AB01AC010230C8000030C90023292500AA
:100198008C150C1201302000AB070030AC3D30301C
:1001A8002B062C040319D928DA28DB282329AB01CC
:1001B800AC010330C8000030C900232925008C1584
:1001C8000C1601302000AB070030AC3D06302B0682
:1001D8002C040319F028F128F2282329AB01AC01DB
:1001E8000430C8000030C900232925008C110C16E2
:1001F80001302000AB070030AC3D30302B062C041A
:1002080003190729082909292329AB01AC01013061
:10021800C8000030C90023294908003A03191529E4
:1002280023294808013A0319B428033A0319CB28AB
:10023800013A0319E228073A0319F92823297E10FD
:10024800090081312729853188258131FC008531D4
:1002580089258131FD004E30840085308500443089
:10026800860000308700123085317C2581312830A6
:10027800840084308500A03086000030870031304B
:1002880085317C258131F901FA01FB012030840098
:10029800003085002430853182258131D1308400B9
:1002A800003085000C308531822581317E10200098
:1002B80081315E2985313125813120000F160F17D4
:1002C8008F168F1708308431B024813120008F17A2
:1002D80097308431B024813120008F171030843159
:1002E8005924813111308531142581312000E400F1
:1002F800E5016408E500E4016408AD006508AE00A6
:1003080010308531142581312000E400E5016408AE
:10031800AD076508AE3D2D0A031D97292E0A03195E
:1003280096299729302A2E08FD002D08FC000A304E
:10033800DE000030DF001030D6002730D7002E084E
:10034800D9002D08D80083317A238131200057083D
:10035800E1005608E0008331F323813120005E0874
:10036800BE3E860087010108E4006408D1000A3017
:10037800DE000030DF00E830D6000330D7002E085A
:10038800D9002D08D80083317A23813120005708FD
:10039800E1005608E0008331F323813120005E0834
:1003A800BE3E860087010108E4006408D2000A30D6
:1003B800DE000030DF006430D6000030D7002E08A1
:1003C800D9002D08D80083317A23813120005708BD
:1003D800E1005608E0008331F323813120005E08F4
:1003E800BE3E860087010108E4006408D3000A3095
:1003F800DE000030DF000A30D6000030D7002E08BB
:10040800D9002D08D80083317A238131200057087C
:10041800E1005608E0008331F323813120005E08B3
:10042800BE3E860087010108E4006408D4000A3053
:10043800DE000030DF002E08E1002D08E0008331E7
:10044800F323813120005E08BE3E86008701010843
:10045800E4006408D500522A7D08AE007C08AD008F
:1004680021003E082000E4006408D10021003E0875
:100478002000E4006408D20021003E082000E400C7
:100488006408D30021003E082000E4006408D4007A
:1004980021003E082000E4006408D5004D30823178
:1004A800E522813120008D100D1125008C150C16C8
:1004B8008C14A0302000D6000030D7008431F424FA
:1004C800813120008D140D1525008C110C16283053
:1004D8002000D6000030D7008431F4248131250073
:1004E8008C110C120C302000D6000030D70084315B
:1004F800F424813125008C110C16C0302000D60060
:100508000030D7008431F424813125008C108531E6
:100518007225813185316025813119302900930098
:1005280024309600971126000D158D1429001612F7
:10053800951796162000940121001408303894006D
:10054800313023009A002900961CAB2AAC2AA72A2E
:100558002000E7012900961CB22AB32AAE2A2000FF
:100568006708443E86008701010823009A0001308D
:100578002000E4006408E70703306702031CC52A6B
:10058800C62AAE2A941EC92ACA2AAC2A9412230063
:1005980019082000E4003C08D13E86008701640861
:1005A80081000130E4006408BC070C303C02031CE5
:1005B800DE2ADF2AAC2ABC01BA01BA0AAC2A813188
:1005C80025292000DF008F1744308431B024823180
:1005D80020008F17C0308431B024823120005F089A
:1005E8008600870101088431B024823120008F17EA
:1005F800C1308431B024823120005F0A860087012F
:1006080001088431B024823120008F17C230843130
:10061800B024823120005F08023E8600870101086D
:100628008431B024823120008F17C3308431B02444
:10063800823120005F08033E86008701010884316B
:10064800B024823120008F17C4308431B024823125
:1006580020005F08043E8600870101088431B02429
:10066800823120008F17C5308431B02482312000B8
:100678005F08053E8600870101088431B024823175
:1006880020008F17C6308431B024823120005F08E3
:10069800063E8600870101088431B024823120009B
:1006A8008F17C7308431B024823120005F08073E9D
:1006B8008600870101088431B024823120008F1719
:1006C800C8308431B024823120005F08083E86009B
:1006D800870101088431B024823120008F179730B8
:1006E8008431B024823120008F1708002000DB01FC
:1006F800DC01560857040319822B832BB22BDD012A
:10070800DD0A8F2B0130D635D70D890B872B0130A9
:10071800DA005A08DD07D71F922B932B862B01305E
:10072800DB35DC0D890B942B57085902031D9E2BD2
:1007380056085802031CA12BA22BA72B5608D80237
:100748005708D93B5B140130D736D60C890BA82B38
:100758000130DD02031DB12BB22B932B5C08D700AF
:100768005B08D6000800F501F6017008710403194A
:10077800BE2BBF2BEE2BF701F70ACB2B0130F03540
:10078800F10D890BC32B0130F4007408F707F11F32
:10079800CE2BCF2BC22B0130F535F60D890BD02B84
:1007A80071087302031DDA2B70087202031CDD2B1B
:1007B800DE2BE32B7008F2027108F33B751401304D
:1007C800F136F00C890BE42B0130F702031DED2BF9
:1007D800EE2BCF2B7608F1007508F00008002000FA
:1007E8005E085F040319F92BFA2B232CE301E30AB3
:1007F800062C0130DE35DF0D890BFE2B0130E200BF
:100808006208E307DF1F092C0A2CFD2B5F08610231
:10081800031D102C5E086002031C132C142C182CCA
:100828005E08E0025F08E13B0130DF36DE0C890B31
:10083800192C0130E302031D222C232C0A2C6108F9
:10084800DF006008DE000800AF34A0346D34E934FE
:10085800E234CB34C034A134EF34EB34E734CE3453
:100868000F34EC348F34AF34A0346D34E934E234CF
:10087800CB34C034A134EF34EB34E734CE340F3406
:10088800EC348F34AF34A0346D34E934E234CB34F3
:10089800CF34A134EF34EB34403440344034403466
:1008A800AF34AF34AF34AF34AF342000E0008F172B
:1008B8000F178F1608308431B024843120008F1729
:1008C80040308431B024843120008F17C030843107
:1008D800B02484312000E1017A2C00308431B02426
:1008E800843101302000DF005F08E1076008610201
:1008F800031C7F2C802C712C8F1797308431B024E7
:1009080084310800F300230095188B2C8C2C872C3D
:100918007308F100F20171089100720892007008E2
:1009280093003F30F10071089505200003108B1FDC
:100938009E2C9F2CA02C03148B13230015155530C7
:100948009600AA309600951415112000031CAD2CB2
:10095800AE2CAF2C8B1708002000DD000230D6002B
:100968000030D7008431D424843120008F13DE0175
:100978000F135D18C02CC32C20008F16C52C200027
:100988008F120F170310DD0C0130DC005C08DE0746
:1009980008305E02031CD12CD22CBC2C8F1308000B
:1009A8002000D901DA01E92CF630D8005808DB001C
:1009B800000001302000DB025B08031DE42CE52C5D
:1009C800DC2C0130D9070030DA3D57085A02031DE4
:1009D800EF2C56085902031CF22CF32CD82C0800D3
:1009E8002000D901DA01092DF630D8005808DB00BB
:1009F800000001302000DB025B08031D042D052DDB
:100A0800FC2C0130D9070030DA3D57085A02031D83
:100A18000F2D56085902031C122D132DF82C08000F
:100A28002000D9006400230095181B2D1D2D2000DF
:100A3800162D20005908D600D7015608230091002A
:100A480020005708230092003F302000D8005808A3
:100A58002300950515141308080021008C012000B7
:100A68008C0121008D0120008D0126008C012500BC
:100A78008C01FA3021008E008F01C0309000683060
:100A88009900043023008C000C3021009D001030A8
:100A98009E000800113401340134ED34013400346F
:100AA800033400340134AF34AF34AF34AF34AF342F
:100AB800AF34AF34AF34E234013020009800111065
:100AC800210011140B3020009700DC3096000B1722
:100AD8008B172100111420001814080085302100FC
:100AE80095000B118B166430200095008B170800B9
:100AF800FE0012001E00FE0B7D2D003464008001F4
:0C0B08000131890B832D0034E3340334E9
:020000040001F9
:04000E00E43FFF3E8E
:00000001FF
